:03000000020D9F4F
:0C0D9F00787FE4F6D8FD758175020DE642
:10119400FF62002500FFFF00000000011905005058
:1011A4009E4B0002162B124F6280FFFF2A32C31F90
:1011B4001EFF00FF00003B00174780030145180095
:0411C400010F0D8C7E
:100FE300043300000000042D00000000500026051B
:100FF300DC05DC03E805DC03E803E803E803E8C1F8
:1010030003014E00012B00013A00C1020137000227
:1010130029000002380000012C00012800C101C191
:1010230004014B00012700012100012225012300B7
:05103300C100012600D0
:10128C00AFF9ADE9EFB5F9F8FE7C00E42DFFEC3ECB
:01129C00FE53
:01129D00222E
:0D12DE00E4F5C7F5C5F5C675C380F5C4225B
:10000E0075C78075C5038FC4EEF5C375C65A75C620
:05001E00A5000212DE46
:10125B0075C78075C5028FC4EEF5C3AF058FC27518
:09126B00C65A75C6A5000212DE88
:1012740075C78075C5018FC4EEF5C375C65A75C6AA
:07128400A500AFC21212DE4B
:01128B002240
:08108B00900038EEF0A3EFF035
:1010930090003FEBF0A3EAF0A3E9F090003D74FF6A
:1010A300F5F012081F45F06026900038E475F00152
:1010B30012081FAFF0FE90003FE0FBA3E475F001C0
:0F10C30012081FA9F0FA120750FD12125B80CC21
:0110D20022FB
:04111900AD07AC066C
:10111D00900040EBF0A3EAF0A3E9F090003E74FFDD
:10112D00F5F012081F45F060220DEDAE0470010CB4
:10113D0014FF121274900040E0FBA3E475F001124D
:0B114D00081FA9F0FAEF12079680D0EF
:011158002274
:0411C800AB07AA06C1
:1011CC00ED24FFEC3401C313FDAF051DEF6010AF30
:0F11DC0003AE0212000EE42BFB74023AFA80EA13
:0111EB0022E1
:0A12F80075CDC0E4F5CE43CED02240
:101241007598DAC298C29975D7C475D6FF758E1490
:0A125100438E01C29CD2ACD2AF2242
:10002600538E7F5389F0758AE0758CFCD2A9D28CE9
:03003600D2AF2224
:1012B000E4F5D8F5E9F5F975D901D2DE75DA102231
:0D12EB00759D01E4F5BD75BC8075BC8822C1
:10120B00C292E4F5CFE5CD30E7FB75CDC0E4F5CF69
:0B121B00E5CD30E7FB75CDC0D292227C
:1011EC00C292EF4440F5CFE5CD30E7FB75CDC0752D
:0F11FC00CFFFE5CD30E7FB75CDC0D292AFCF224C
:10122600C2928FCFE5CD30E7FB75CDC0AF058FCF2E
:0B123600E5CD30E7FB75CDC0D2922261
:100E2B0090003D12099AC29275CF06E5CD30E7FBD3
:100E3B0075CDC090003DE0FCA3E0FDA3E0FEA3E078
:100E4B00FF78181209148FCFE5CD30E7FB75CDC0B5
:100E5B0090003DE0FCA3E0FDA3E0FEA3E0FF7810D3
:100E6B001209148FCFE5CD30E7FB75CDC090003D57
:100E7B00E0FCA3E0FDA3E0FEA3E0FF780812091459
:100E8B008FCFE5CD30E7FB75CDC090003DA3A3A37D
:0E0E9B00E0F5CFE5CD30E7FB75CDC0D2922259
:100A700090003D1209A600000000C29275CF46E525
:100A8000CD30E7FB75CDC075CFFFE5CD30E7FB7509
:100A9000CDC090003DE0F8A3E0F9A3E0FAA3E0FBAD
:100AA000AFCFEB4FFFEAFEE9FDE8FC90003D1209F5
:100AB0009A90003DE0FCA3E0FDA3E0FEA3E0FF78F8
:100AC0000812092790003D12099A75CFFFE5CD3035
:100AD000E7FB75CDC090003DE0F8A3E0F9A3E0FA94
:100AE000A3E0FBAFCFEB4FFFEAFEE9FDE8FC90008F
:100AF0003D12099A90003DE0FCA3E0FDA3E0FEA3B7
:100B0000E0FF780812092790003D12099A75CFFF7F
:100B1000E5CD30E7FB75CDC090003DE0F8A3E0F9EE
:100B2000A3E0FAA3E0FBAFCFEB4FFFEAFEE9FDE85D
:100B3000FC90003D12099A90003DE0FCA3E0FDA36B
:100B4000E0FEA3E0FF780812092790003D12099A01
:100B500075CFFFE5CD30E7FB75CDC090003DE0F8E7
:100B6000A3E0F9A3E0FAA3E0FBAFCFEB4FFFEAFE6F
:100B7000E9FDE8FC90003D12099AD29290003DE018
:0A0B8000FCA3E0FDA3E0FEA3E0FFEC
:010B8A002248
:10115900C29275CFE0E5CD30E7FB75CDC0D292C222
:101169009275CF05E5CD30E7FB75CDC0AF051DEF15
:101179006016120750F5CFE5CD30E7FB75CDC07489
:0B1189000129F9E43AFA80E4D2922236
:10103900900038EBF0A3EAF0A3E9F0C29275CFF083
:10104900E5CD30E7FB75CDC0D292C29275CF45E5AB
:10105900CD30E7FB75CDC0AF051DEF602275CFFF21
:10106900E5CD30E7FB75CDC0900038E0FBA3E47512
:10107900F00112081FA9F0FAE5CF12079680D8D21D
:021089009222B1
:0613020012120B020E2B7B
:0D0D1100AE0590003DEBF0A3EAF0A3E9F081
:040D1E004A4B607C60
:100D2200A37403F0A374E8F0E4FCECC39E501F909C
:100D3200003DE0FBA3E0FAA3E0F98C827583001288
:100D42000769FDF46005AF041212260C80DCC29222
:100D520075CFA0E5CD30E7FB75CDC0D2927D017F86
:100D6200021212267F021211ECEF600E9000407404
:100D7200FFF5F012081F45F070EA7F221211EC7D98
:100D8200137F241212267D097F25121226C2927524
:0C0D9200CFA0E5CD30E7FB75CDC0D292BC
:010D9E002232
:05129E0075CDC07F01C9
:0C12A300E5212F540FF521243BF8E6FF55
:0112AF00221C
:100B8B00900038EBF0A3EAF0A3E9F0900038E0FB1B
:0E0B9B00A3E0FAA3E0F9EA494B7003020C6EE6
:100BA900900038A3A3A3EBF0A3EAF0A3E9F0AF27E1
:100BB9007E007C0E7D2E1209D7E47BFFFAF9F8122C
:100BC900087190003EEEF0A3EFF090003BE0FBA32C
:100BD900E0FAA3E0F974AA12079690003BE0FBA3A0
:100BE900E0FAA3E0F9900009E41207A890000AE4EA
:100BF9001207A890003FE090000B1207A890003E52
:100C0900E090000C1207A890000D74FC1207A89040
:100C1900000EE41207A890000FE41207A890001034
:100C2900E41207A890001174FE1207A8900012E4BC
:100C39001207A8E54B9000131207A8E490001412BC
:100C490007A87E007F107DFFE92415F9E43AFA121E
:100C59000A04900038E0FBA3E0FAA3E0F9AD221200
:050C6900115975221570
:010C6E002263
:100C6F0078F112098E8F308E2F8D2E8C2D9011C60C
:100C7F00E493900038F07F2A7EC57D757C54121363
:100C8F00027BFF7A1179947D32120D11120A709046
:100C9F00003912099A7F2A7EC57D757C54900039E0
:100CAF00E0F8A3E0F9A3E0FAA3E0FBC312090360A5
:100CBF00037F0022E4FFFEFDFCAB36AA35A934A862
:100CCF0033C31209037004C202800CD202E4FF1274
:100CDF0012A3900038EFF0900038E0FD7F0F121252
:100CEF0026C29275CFC0E5CD30E7FB75CDC0D2924D
:100CFF00E4F538F539752925752AE4F52C05287F93
:010D0F0001E2
:010D100022C0
:100F2100E4FDFFFE121274AD077F01121274ED642D
:100F3100557044EF64AA703F9000387402F0E0FFEE
:100F41007B007A00793390003EE4F0A37404F01240
:100F51001119900038E02404F0E0FF7E007B007A54
:100F610000793B90003EE4F0A37410F01211199047
:100F71000038E02410F022E4F536F535F534F53388
:010F8100224D
:1010D3007D007C02E4FFFE1211C87D55E4FFFE1281
:1010E300125B7DAA7F0112125BECFF7B007A007911
:1010F3003390003DE4F0A37404F012108B74042CBD
:10110300FCFF7E007B007A00793B90003DE4F0A376
:061113007410F002108BC5
:0E12C00000007F2E7E997DF5DDFEDEFCDFFA5C
:0112CE0022FD
:0E12CF0000007F0A7E1F7D93DDFEDEFCDFFA4D
:0112DD0022EE
:10003E001212C0120F211212411212EB1212B01232
:10004E0000261212F8D292D2B3120C6FEF7019C2B0
:10005E00B21212CFD2B21212CFC2B21212CFD2B28B
:0F006E001212C01212C080E712128C8E4C8F4DEE
:10007D00C20520D803020257C2D8AFFAEFFEADEA8F
:10008D007C00E42DF532EC3EF531C29275CF40E5A2
:10009D00CD30E7FB75CDC075CFFFE5CD30E7FB75F6
:1000AD00CDC0D29285CF0CE50C30E12C20E029306B
:1000BD000219C29275CF0FE5CD30E7FB12129E8F5C
:1000CD00CFE5CD30E7FB75CDC0D292C29275CFC0D2
:1000DD00E5CD30E7FB020252E50C5421600302022C
:0100ED0048CA
:1000EE003002047F1980027F1B8F0B7B007A007910
:1000FE0051AD0B121039E55124A8601824AE6014CE
:10010E0024EF70030201AF1470030201AF24666086
:10011E0003020239853138853239752925752AE46D
:10012E00E4F52C0528900026E55BF0A3E55AF0A334
:10013E00E55DF0A3E55CF0A3E55FF0A3E55EF0A35B
:10014E00E561F0A3E560F0A3E563F0A3E562F0A33B
:10015E00E565F0A3E564F0A3E567F0A3E566F0A31B
:10016E00E569F0A3E568F03004137B007A0079515D
:10017E00120B8B85314F853250D201C204D205301D
:10018E000103020239C29275CF0FE5CD30E7FB12A3
:10019E00129E8FCFE5CD30E7FB75CDC0D292020215
:0701AE00393002030202399F
:1001B500853138853239752925752AE4E4F52C050C
:1001C50028FB7A007951F5088A09890A90000B12F3
:1001D5000769F46018AB08E50A240BF9E43509FA58
:1001E500783B7C007D007E007F1012072AAB08AAB1
:1001F50009A90A90000112093A8F368E358D348C83
:1002050033AF30AE2FAD2EAC2D90000512096A7EAE
:10021500007F1A7DFFE9240BF9E43AFA120A04D2A9
:100225000185314F853250E4F52BFB7A0079517DFC
:040235002512115924
:0D02390020011BC29275CFC0E5CD30E7FB60
:10024600800AC29275CFC0E5CD30E7FB75CDC0D22E
:100256009230012612128CC3EF9550FFEE954FFE99
:10026600D3EF94E8EE94034011C29275CFD0E5CD5A
:1002760030E7FB75CDC0D292C20120B337E53760B7
:100286002EC3E52B9537C3943D402CC202E4F536C8
:10029600F535F534F533FE7F10FDFB7A00793B1218
:1002A6000A049011C6E493FD7F0F1212268008857A
:1002B6002B378003E4F53712128C8E248F2520020B
:0402C6000302038CA0
:1002CA00C3E5259539FFE5249538FED3EF952AEE47
:0402DA0095294071B1
:1002DE007C1E7D141207CA900036EEF0A3EFF0D309
:1002EE009401EE94004006AE24AF25800AE5392530
:1002FE002AFFE5383529FE8E388F39C29275CFA088
:10030E00E5CD30E7FB75CDC0D292900037E0540FAB
:10031E00FF1212A3AD077F0F121226C29275CFC025
:10032E00E5CD30E7FB75CDC0D292E52CD3941F40BE
:10033E000875292D752A1E800875291E752A140523
:01034E002C82
:10034F00C3E52B9523C3940C4020852B23E52894DC
:10035F006440047F008006C374649528FF8F4BE4CC
:10036F00F52885BD2775BC88D204E54BD394504042
:0B037F0008E53A940C4062805BC2B2BB
:10038A00805CE52BD394064049E53B6045E4FFFEDB
:10039A00FDFCAB36AA35A934A8331209036033D25F
:1003AA00021210D3E4F52BC29275CF0FE5CD30E7D8
:1003BA00FB12129E8FCFE5CD30E7FB75CDC0D292EE
:1003CA0012128C8E388F39752925752AE4E4F52C9A
:1003DA000528E53AC394034005E4F53AB2B2C3E509
:1003EA0025954DFFE524954CFED3EF9460EE946D70
:1003FA00500302007D85244C85254D200503020605
:10040A0045900027E0C4F8540FC868FF900026E022
:10041A00C454F048FE7C007D0A1207CAEF2480FF0C
:10042A00EE34FA900016F0A3EFF0900029E0C4F839
:10043A00540FC868FF900028E0C454F048FE7C00BE
:10044A007D0A1207CAEF2480FFEE34FA900018F0F2
:10045A00A3EFF090002BE0C4F8540FC868FF900097
:10046A002AE0C454F048FE7C007D0A1207CAEF2431
:10047A0080FFEE34FA90001AF0A3EFF090002DE01E
:10048A00C4F8540FC868FF90002CE0C454F048FE2A
:10049A007C007D0A1207CAEF2480FFEE34FA90002E
:1004AA001CF0A3EFF090002FE0C4F8540FC868FFC7
:1004BA0090002EE0C454F048FE7C007D0A1207CA60
:1004CA00EF2480FFEE34FA90001EF0A3EFF09000C4
:1004DA0031E0C4F8540FC868FF900030E0C454F00B
:1004EA0048FE7C007D0A1207CAEF2480FFEE34FA28
:1004FA00900020F0A3EFF0900033E0C4F8540FC846
:10050A0068FF900032E0C454F048FE7C007D0A1275
:10051A0007CAEF2480FFEE34FA900022F0A3EFF02E
:10052A00900035E0C4F8540FC868FF900034E0C466
:10053A0054F048FE7C007D0A1207CAEF2480FFEEC1
:10054A0034FA900024F0A3EFF0900017E090000036
:10055A00F0900019E033333354F8FF900016E04F5F
:10056A00900001F0900018E0FEA3E07805CEC313D6
:10057A00CE13D8F9FF90001BE0C4333354C04F9018
:10058A000002F090001AE0FCA3E0FDAE047802CE6F
:10059A00C313CE13D8F9900003F0EC1313543FFFA2
:1005AA0090001DE025E04F900004F090001CE0FE52
:1005BA00A3E07807CEC313CE13D8F9FF90001FE04B
:1005CA00C454F04F900005F090001EE0C4F854F0B7
:1005DA00C8A3E0C4540F48FF900021E0C43333336A
:1005EA0054804F900006F0900020E0FCA3E0FDEC60
:1005FA00C313ED13900007F0ECC313FF900023E040
:10060A0025E025E04F900008F0900022E0FEA3E0EC
:10061A007806CEC313CE13D8F9FF900025E0C43371
:10062A0054E04F900009F0900024E0FEA3E0780324
:10063A00CEC313CE13D8F990000AF0740F30D00449
:0D064A00D29B8002C29BF599E4F54ED203CD
:0306570002007D21
:03002300020F8247
:100F8200C0E0C083C082C0D0309948C299E54EC348
:100F9200941650177400254EF582E43400F583E070
:100FA20030D004D29B8024C29B8020E54EB4160C24
:100FB200E430D004D29B8002C29B800FE54EB4176E
:100FC20010E430D004D29B8002C29BF599054E807A
:100FD20002C203309802C298D0D0D082D083D0E02F
:010FE20032DC
:03000B00020EA939
:0F0EA900C0E0C083C082C0D075D000C006C007B3
:100EB800A20092B030000A758AE0758CFCC20080EE
:100EC8004BE526C394085033E52625E02426F58211
:100ED800E43400F583A3E025E0FF0582D5820215FE
:100EE800831582E033FEEF24E0FFEE34FCFEC3E41A
:100EF8009FF50EE49EF50D05268009750DE8750E23
:0C0F080090752600850E8A850D8CD200A5
:0D0F1400D007D006D0D0D082D083D0E032FC
:03003B00020003BD
:07000300C2DF052B053A32B4
:100DAB0002003EE493A3F8E493A34003F68001F220
:100DBB0008DFF48029E493A3F85407240CC8C33349
:100DCB00C4540F4420C8834004F456800146F6DF18
:100DDB00E4800B0102040810204080900FE3E47EB6
:100DEB00019360BCA3FF543F30E509541FFEE4930D
:100DFB00A360010ECF54C025E060A840B8E493A3D4
:100E0B00FAE493A3F8E493A3C8C582C8CAC583CAFE
:100E1B00F0A3C8C582C8CAC583CADFE9DEE780BEB6
:0110380000B7
:10065A00E709F608DFFA8046E709F208DFFA803E82
:10066A0088828C83E709F0A3DFFA8032E309F6086F
:10067A00DFFA8078E309F208DFFA807088828C83D7
:10068A00E309F0A3DFFA806489828A83E0A3F6088B
:10069A00DFFA805889828A83E0A3F208DFFA804C65
:1006AA0080D280FA80C680D4806980F2803380103C
:1006BA0080A680EA809A80A880DA80E280CA8033A5
:1006CA0089828A83ECFAE493A3C8C582C8CCC5831D
:1006DA00CCF0A3C8C582C8CCC583CCDFE9DEE780ED
:1006EA000D89828A83E493A3F608DFF9ECFAA9F06C
:1006FA00EDFB2289828A83ECFAE0A3C8C582C8CCC2
:10070A00C583CCF0A3C8C582C8CCC583CCDFEADEDA
:10071A00E880DB89828A83E493A3F208DFF980CC3C
:10072A0088F0EF60010E4E60C388F0ED2402B40435
:10073A000050B9F582EB2402B4040050AF232345DC
:06074A0082239006AA7351
:10075000BB010689828A83E0225002E722BBFE02A7
:09076000E32289828A83E49322DA
:10076900BB010CE58229F582E5833AF583E0225045
:1007790006E92582F8E622BBFE06E92582F8E2228F
:0D078900E58229F582E5833AF583E49322A9
:10079600BB010689828A83F0225002F722BBFE0142
:0207A600F3223C
:1007A800F8BB010DE58229F582E5833AF583E8F087
:1007B800225006E92582C8F622BBFE05E92582C833
:0207C800F2221B
:1007CA00BC000BBE0029EF8DF084FFADF022E4CC13
:1007DA00F875F008EF2FFFEE33FEEC33FCEE9DECDC
:1007EA00984005FCEE9DFE0FD5F0E9E4CEFD22ED22
:1007FA00F8F5F0EE8420D21CFEADF075F008EF2F6C
:10080A00FFED33FD4007985006D5F0F222C398FD5C
:05081A000FD5F0EA22F9
:10081F00A3F8E0C5F025F0F0E5821582700215838C
:06082F00E0C838F0E822E9
:1008350075F008758200EF2FFFEE33FECD33CDCC7A
:1008450033CCC58233C5829BED9AEC99E5829840FD
:100855000CF582EE9BFEED9AFDEC99FC0FD5F0D6DA
:10086500E4CEFBE4CDFAE4CCF9A88222B800C1B904
:100875000059BA002DEC8BF084CFCECDFCE5F0CB42
:10088500F97818EF2FFFEE33FEED33FDEC33FCEB7B
:1008950033FB10D703994004EB99FB0FD8E5E4F936
:1008A500FA227818EF2FFFEE33FEED33FDEC33FC23
:1008B500C933C910D7059BE99A4007EC9BFCE99A17
:1008C500F90FD8E0E4C9FAE4CCFB2275F010EF2F5C
:1008D500FFEE33FEED33FDCC33CCC833C810D7075C
:1008E5009BEC9AE899400AED9BFDEC9AFCE899F897
:0E08F5000FD5F0DAE4CDFBE4CCFAE4C8F9222A
:10090300EB9FF5F0EA9E42F0E99D42F0E89C45F04A
:0109130022C1
:10091400E8600FECC313FCED13FDEE13FEEF13FFC1
:03092400D8F122E5
:10092700E8600FEFC333FFEE33FEED33FDEC33FC2E
:03093700D8F122D2
:10093A00BB010DE58229F582E5833AF583020A3087
:10094A005007E92582F802098EBBFE07E92582F8DD
:10095A00020A3CE58229F582E5833AF583020A48D0
:10096A00BB010DE58229F582E5833AF58302099AEE
:10097A005007E92582F8020A58BBFE07E92582F8E2
:04098A00020A6422D7
:0C098E00E6FC08E6FD08E6FE08E6FF2295
:0C099A00ECF0A3EDF0A3EEF0A3EFF022D0
:1009A600A8828583F0D083D0821209BD1209BD12B8
:1009B60009BD1209BDE473E493A3C583C5F0C583DD
:1009C600C8C582C8F0A3C583C5F0C583C8C582C89B
:0109D60022FE
:1009D700EC8EF0A4CCC5F0CCCDF8EFA4CEC5F02DAD
:1009E700FDE43CFCE8A42EC8C5F03DFDE43CFCEF6B
:0D09F700A4FFE5F028FEE43DFDE43CFC22F9
:100A0400EF4E6012EF60010EEDBB010B89828A8309
:100A1400F0A3DFFCDEFA2289F05007F709DFFCA916
:0C0A2400F022BBFEFCF309DFFCA9F0226D
:0C0A3000E0FCA3E0FDA3E0FEA3E0FF2239
:0C0A3C00E2FC08E2FD08E2FE08E2FF22F6
:100A4800E493FC740193FD740293FE740393FF22F4
:0C0A5800ECF608EDF608EEF608EFF622CA
:0C0A6400ECF208EDF208EEF208EFF222CE
:00000001FF
